:0300000002092BC7
:0C092B00787FE4F6D8FD75810702080013
:10080000E4F5A0C2902094087F3112091D1209005E
:1008100020950B7F3212091D1209001208E3209661
:100820000B7F3312091D1209001208E3D290C29106
:1008300020940B7F3412091D1209001208E3209541
:100840000B7F3512091D1209001208E320960B7F59
:100850003612091D1209001208E3D291C2922094A7
:100860000B7F3712091D1209001208E320950B7F38
:100870003812091D1209001208E320960B7F391265
:10088000091D1209001208E3D292C29320940B7F33
:100890002A12091D1209001208E320950B7F30125D
:1008A000091D1209001208E320960B7F2312091D6F
:1008B0001209001208E3D2937F3812090F120900BF
:1008C0007F0112090F1209007F0612090F12090099
:1008D0007F0C12090F1209007F8112090F12090003
:0308E00002080308
:0E090F008FA0C2B0C2B1D2B2120900C2B22291
:0E091D008FA0D2B0C2B1D2B2120900C2B22273
:0E090000E4FFFE0FBF00010EBE27F8BF10F58A
:01090E0022C6
:1008E300E4FFFEE4FDFC0DBD00010CBC07F8BDD028
:0C08F300F50FBF00010EEF64C84E70E767
:0108FF0022D6
:00000001FF
